{
  "contractName": "FileShareLogger",
  "abi": [
    {
      "anonymous": false,
      "inputs": [
        {
          "indexed": true,
          "internalType": "address",
          "name": "sender",
          "type": "address"
        },
        {
          "indexed": false,
          "internalType": "string",
          "name": "fileHash",
          "type": "string"
        },
        {
          "indexed": false,
          "internalType": "uint256",
          "name": "timestamp",
          "type": "uint256"
        }
      ],
      "name": "FileShared",
      "type": "event"
    },
    {
      "inputs": [
        {
          "internalType": "uint256",
          "name": "",
          "type": "uint256"
        }
      ],
      "name": "logs",
      "outputs": [
        {
          "internalType": "address",
          "name": "sender",
          "type": "address"
        },
        {
          "internalType": "string",
          "name": "fileHash",
          "type": "string"
        },
        {
          "internalType": "uint256",
          "name": "timestamp",
          "type": "uint256"
        }
      ],
      "stateMutability": "view",
      "type": "function",
      "constant": true
    },
    {
      "inputs": [
        {
          "internalType": "string",
          "name": "_fileHash",
          "type": "string"
        }
      ],
      "name": "logFileShare",
      "outputs": [],
      "stateMutability": "nonpayable",
      "type": "function"
    },
    {
      "inputs": [],
      "name": "getLogsCount",
      "outputs": [
        {
          "internalType": "uint256",
          "name": "",
          "type": "uint256"
        }
      ],
      "stateMutability": "view",
      "type": "function",
      "constant": true
    },
    {
      "inputs": [
        {
          "internalType": "uint256",
          "name": "index",
          "type": "uint256"
        }
      ],
      "name": "getLog",
      "outputs": [
        {
          "internalType": "address",
          "name": "",
          "type": "address"
        },
        {
          "internalType": "string",
          "name": "",
          "type": "string"
        },
        {
          "internalType": "uint256",
          "name": "",
          "type": "uint256"
        }
      ],
      "stateMutability": "view",
      "type": "function",
      "constant": true
    }
  ],
  "bytecode": "0x608060405234801561001057600080fd5b50610966806100206000396000f3fe608060405234801561001057600080fd5b506004361061004c5760003560e01c80633206b2c614610051578063ba7a82ca14610083578063cc9e300f1461009f578063e79899bd146100bd575b600080fd5b61006b60048036038101906100669190610614565b6100ef565b60405161007a939291906106d4565b60405180910390f35b61009d600480360381019061009891906105d3565b6102a0565b005b6100a76103c5565b6040516100b49190610762565b60405180910390f35b6100d760048036038101906100d29190610614565b6103d1565b6040516100e6939291906106d4565b60405180910390f35b6000606060008080549050841061013b576040517f08c379a000000000000000000000000000000000000000000000000000000000815260040161013290610742565b60405180910390fd5b6000808581548110610176577f4e487b7100000000000000000000000000000000000000000000000000000000600052603260045260246000fd5b90600052602060002090600302016040518060600160405290816000820160009054906101000a900473ffffffffffffffffffffffffffffffffffffffff1673ffffffffffffffffffffffffffffffffffffffff1673ffffffffffffffffffffffffffffffffffffffff1681526020016001820180546101f590610878565b80601f016020809104026020016040519081016040528092919081815260200182805461022190610878565b801561026e5780601f106102435761010080835404028352916020019161026e565b820191906000526020600020905b81548152906001019060200180831161025157829003601f168201915b505050505081526020016002820154815250509050806000015181602001518260400151935093509350509193909250565b600060405180606001604052803373ffffffffffffffffffffffffffffffffffffffff168152602001838152602001428152509050600081908060018154018082558091505060019003906000526020600020906003020160009091909190915060008201518160000160006101000a81548173ffffffffffffffffffffffffffffffffffffffff021916908373ffffffffffffffffffffffffffffffffffffffff16021790555060208201518160010190805190602001906103649291906104b3565b506040820151816002015550503373ffffffffffffffffffffffffffffffffffffffff167f29516b7c222c0a9c7c1f3c66abbcd15d16b2399d6a53fef06158b2bfe5e131e283426040516103b9929190610712565b60405180910390a25050565b60008080549050905090565b600081815481106103e157600080fd5b90600052602060002090600302016000915090508060000160009054906101000a900473ffffffffffffffffffffffffffffffffffffffff169080600101805461042a90610878565b80601f016020809104026020016040519081016040528092919081815260200182805461045690610878565b80156104a35780601f10610478576101008083540402835291602001916104a3565b820191906000526020600020905b81548152906001019060200180831161048657829003601f168201915b5050505050908060020154905083565b8280546104bf90610878565b90600052602060002090601f0160209004810192826104e15760008555610528565b82601f106104fa57805160ff1916838001178555610528565b82800160010185558215610528579182015b8281111561052757825182559160200191906001019061050c565b5b5090506105359190610539565b5090565b5b8082111561055257600081600090555060010161053a565b5090565b6000610569610564846107ae565b61077d565b90508281526020810184848401111561058157600080fd5b61058c848285610836565b509392505050565b600082601f8301126105a557600080fd5b81356105b5848260208601610556565b91505092915050565b6000813590506105cd81610919565b92915050565b6000602082840312156105e557600080fd5b600082013567ffffffffffffffff8111156105ff57600080fd5b61060b84828501610594565b91505092915050565b60006020828403121561062657600080fd5b6000610634848285016105be565b91505092915050565b610646816107fa565b82525050565b6000610657826107de565b61066181856107e9565b9350610671818560208601610845565b61067a81610908565b840191505092915050565b60006106926013836107e9565b91507f496e646578206f7574206f6620626f756e6473000000000000000000000000006000830152602082019050919050565b6106ce8161082c565b82525050565b60006060820190506106e9600083018661063d565b81810360208301526106fb818561064c565b905061070a60408301846106c5565b949350505050565b6000604082019050818103600083015261072c818561064c565b905061073b60208301846106c5565b9392505050565b6000602082019050818103600083015261075b81610685565b9050919050565b600060208201905061077760008301846106c5565b92915050565b6000604051905081810181811067ffffffffffffffff821117156107a4576107a36108d9565b5b8060405250919050565b600067ffffffffffffffff8211156107c9576107c86108d9565b5b601f19601f8301169050602081019050919050565b600081519050919050565b600082825260208201905092915050565b60006108058261080c565b9050919050565b600073ffffffffffffffffffffffffffffffffffffffff82169050919050565b6000819050919050565b82818337600083830152505050565b60005b83811015610863578082015181840152602081019050610848565b83811115610872576000848401525b50505050565b6000600282049050600182168061089057607f821691505b602082108114156108a4576108a36108aa565b5b50919050565b7f4e487b7100000000000000000000000000000000000000000000000000000000600052602260045260246000fd5b7f4e487b7100000000000000000000000000000000000000000000000000000000600052604160045260246000fd5b6000601f19601f8301169050919050565b6109228161082c565b811461092d57600080fd5b5056fea2646970667358221220471e3cde2b79b3cb487da59a5223be74a471c39e87c30bbce0e42333b4f5743a64736f6c63430008000033",
  "immutableReferences": {},
  "source": "// SPDX-License-Identifier: MIT\r\npragma solidity ^0.8.0;\r\n\r\ncontract FileShareLogger {\r\n    struct FileLog {\r\n        address sender;\r\n        string fileHash;\r\n        uint256 timestamp;\r\n    }\r\n    \r\n    FileLog[] public logs;\r\n    \r\n    event FileShared(address indexed sender, string fileHash, uint256 timestamp);\r\n    \r\n    function logFileShare(string memory _fileHash) public {\r\n        FileLog memory newLog = FileLog({\r\n            sender: msg.sender,\r\n            fileHash: _fileHash,\r\n            timestamp: block.timestamp\r\n        });\r\n        \r\n        logs.push(newLog);\r\n        emit FileShared(msg.sender, _fileHash, block.timestamp);\r\n    }\r\n    \r\n    function getLogsCount() public view returns (uint256) {\r\n        return logs.length;\r\n    }\r\n    \r\n    function getLog(uint256 index) public view returns (address, string memory, uint256) {\r\n        require(index < logs.length, \"Index out of bounds\");\r\n        FileLog memory log = logs[index];\r\n        return (log.sender, log.fileHash, log.timestamp);\r\n    }\r\n}\r\n",
  "sourcePath": "C:\\Users\\spatel19\\Desktop\\p2p\\contracts\\logging_contract.sol",
  "compiler": {
    "name": "solc",
    "version": "0.8.0+commit.c7dfd78e.Emscripten.clang"
  },
  "schemaVersion": "3.4.16",
  "updatedAt": "2025-05-08T01:12:54.165Z",
  "networkType": "ethereum",
  "devdoc": {
    "kind": "dev",
    "methods": {},
    "version": 1
  },
  "userdoc": {
    "kind": "user",
    "methods": {},
    "version": 1
  }
}